:100000000C9434000C943E000C943E000C943E0082
:100010000C943E000C943E000C943E000C943E0068
:100020000C943E000C943E000C943E000C943E0058
:100030000C943E000C943E000C943E000C943E0048
:100040000C943E000C943E000C943E000C943E0038
:100050000C943E000C943E000C943E000C943E0028
:100060000C943E000C943E0011241FBECFEFD8E04C
:10007000DEBFCDBF0E9440000C945B000C940000DA
:1000800050985298209A29E130E0489B0BC04A9B37
:1000900009C0289A80E29EE4F9013197F1F70197AF
:1000A000D9F7F3CF289880E29EE4F9013197F1F770
:0A00B0000197D9F7EACFF894FFCFCB
:00000001FF
