:100000000C9434000C943E000C943E000C943E0082
:100010000C943E000C943E000C943E000C943E0068
:100020000C943E000C943E000C943E000C943E0058
:100030000C943E000C943E000C943E000C943E0048
:100040000C943E000C943E000C943E000C943E0038
:100050000C943E000C943E000C943E000C943E0028
:100060000C943E000C943E0011241FBECFEFD8E04C
:10007000DEBFCDBF0E94B5000C94F4000C940000CC
:1000800050985198209A0895489B0DC0499B0BC0E9
:10009000289A80E29EE429E130E0F9013197F1F7F6
:1000A0000197D9F70895289880E29EE429E130E08D
:1000B000F9013197F1F70197D9F70895ECE7F0E0EE
:1000C000908190649083AAE7B0E09C9197689C939C
:1000D0009081987F908390818770892B8083089589
:1000E00080917A00806480937A0080917A0084FF06
:1000F000FCCF80917A00806180937A002091780013
:1001000030917900C901089584B5836884BD85B5AF
:10011000836085BD569A089587BD80E29EE429E1FB
:1001200030E0F9013197F1F70197D9F708958093FD
:10013000C4009093C500E2ECF0E080818664808387
:10014000E1ECF0E08081886D808308958091C000AB
:1001500087FFFCCF8091C6000895982F8091C00042
:1001600085FFFCCF9093C60008950E94400080E078
:100170000E945E000E94840087E690E00E94970043
:100180000E9444000E9470009C010197883C9105E8
:1001900030F483E30E948C0084E190E022C0C90126
:1001A000825D90408352914030F486E60E948C003C
:1001B00089E190E016C0C9018E5F91408F3B9105A7
:1001C00030F483EB0E948C008DE190E00AC0265C45
:1001D00032402A533140A0F683EF0E948C0081E226
:0C01E00090E00E94AD00CCCFF894FFCF5F
:00000001FF
